:100000000C94CC010C94E9010C94E9010C94E901E5
:100010000C9424040C94E9010C94E9010C94E9017A
:100020000C94E9010C9401020C94E9010C94DF0B8F
:100030000C943C0C0C94E9010C94E9010C94E9013A
:100040000C94DD030C94E9010C94360E0C946B0EA9
:100050000C94E9010C94E9010C94E9010C94E90178
:100060000C94E9010C94E901D90BDC0BDC0BDC0BE3
:10007000DC0BDC0BDC0BDC0BDC0BDC0BDC0BDC0B48
:10008000DC0BDC0BDC0BDC0BDC0BDC0BDC0BDC0B38
:10009000DC0BDC0BDC0BDC0BDC0BDC0BDC0BDC0B28
:1000A000DC0BDC0BDC0BDC0BDC0BDC0BDC0BDC0B18
:1000B000DC0BDC0BDC0BDC0BDC0BDC0BDC0BDC0B08
:1000C000DC0BDC0BDC0BDC0BDC0BDC0BDC0BDC0BF8
:1000D000DC0BDC0BDC0BDC0BDC0BDC0BDC0BDC0BE8
:1000E000DC0BDC0BDC0BDC0BDC0B8C0BA30BA00B9D
:1000F000910BC60BC90BDC0BDC0BBE0BDC0BDC0B5A
:10010000960BDC0BAE0BD10BDC0BDC0B9B0B870BCC
:10011000B60BA60BDC0B820B084AD73B3BCE016E1D
:1001200084BCBFFDC12F3D6C74319ABD56833DDA4E
:100130003D00C77F11BED9E4BB4C3E916BAAAABE5D
:10014000000000803F006972726563765F646563DA
:100150006F64653D006164635F723D006164635F6D
:100160006C3D0068656164696E673D0070696E672B
:100170005F636D3D007370643D007472696D3D0096
:10018000686967683D006E6578745F73743D006FE1
:10019000726967696E3D0073746174653D006164E6
:1001A000635F723D006164635F6C3D00686561641C
:1001B000696E673D0070696E675F636D3D006972CF
:1001C000726563765F6465636F64653D007A65722E
:1001D0006F65640D0A000D0A002C20005A5A5A5A05
:1001E0003C5A5A3C010101015A5A5A5A5A5A5A5A0F
:1001F000010101015A5A5A5A64643C3C0303030347
:100200005A5A5A5A3C3C6464030303035A5A5A5AD2
:100210005A5A5A5A030303035A1E965A3C5A5A64AE
:10022000030101015A1E965A645A5A6403010101DE
:10023000783CB400645A5A3C01010103783CB40094
:10024000645A5A6401010103965A5A1E645A3C6466
:1002500001010301965A5A1E645A5A6401010301AE
:10026000B400783C643C5A6401030101B400783C5A
:10027000645A5A6401030101965A5A1E643C5A6436
:1002800001030101965A5A1E645A5A64010301017E
:10029000783CB400645A3C6401010301783CB4002A
:1002A000645A5A64010103015A1E965A645A5A3C10
:1002B000010101035A1E965A645A5A64010101034E
:1002C000B400783C3C5A5A6403010101B400783C04
:1002D000645A5A5A03010101B400783C645A5A64C2
:1002E00003010101965A965A644B5A6401030101B5
:1002F000965A965A645A5A6401030101783CB40034
:10030000645A5A3C01010103783CB400645A5A64AF
:10031000010101035A1E5A1E645A4B640101030174
:100320005A1E5A1E645A5A6401010301B400783CF3
:100330003C5A5A6403010101B400783C645A5A647F
:10034000010301015A1E5A1E3C5A5A64030101015D
:100350005A1E5A1E645A5A6403010101783CB400C3
:10036000645A3C6401010301783CB400645A5A6445
:1003700001010301965A965A645A5A3C010101033D
:10038000965A965A645A5A6401010103B400783CA3
:10039000643C5A640103010111241FBECFEFD8E071
:1003A000DEBFCDBF11E0A0E0B1E0ECE2F5E202C0BB
:1003B00005900D92AC32B107D9F723E0ACE2B1E081
:1003C00001C01D92AB32B207E1F70E94B3090C9451
:1003D00094120C94000024982C9A259A82E0809321
:1003E000420210920D031092B0008093B100E0E73A
:1003F000F0E08081816080838FE98093B2007894FF
:1004000008951F920F920FB60F9211242F933F93CE
:100410008F939F93AF93BF93CF93DF93EF93FF930C
:100420008FE98093B20083B18071E2E4F2E0218130
:1004300032812F5F3F4F3283218390910D03943699
:1004400018F095E090934202909142029330A1F10E
:1004500018F4923041F07BC0943009F44AC09530D2
:1004600009F46EC074C0811176C0809143029091EE
:1004700044028436910528F41092440210924302FB
:1004800068C0A2E4B2E0CDE0D3E01882E88181E068
:100490008E0F8883F0E011968D919C911297EE0F4C
:1004A000FF1FEE5BFD4F9483838312961C921E9276
:1004B000119783E08C934DC0882309F44AC0A2E4CD
:1004C000B2E0CDE0D3E0E88181E08E0F8883F0E0F8
:1004D00011968D919C911297EE0FFF1FEE5BFD4FD1
:1004E0009483838312961C921E92119784E08C93BE
:1004F00032C081111AC0A2E4B2E0CDE0D3E0E881BD
:1005000081E08E0F8883F0E011968D919C91129777
:10051000EE0FFF1FEE5BFD4F9483838312961C92B8
:100520001E92119783E08C9314C0809143029091A6
:1005300044028536910578F085E0809342020BC035
:10054000811109C0109244021092430202C081112D
:1005500002C02D9A01C02D98FF91EF91DF91CF91AC
:10056000BF91AF919F918F913F912F910F900FBEAF
:100570000F901F90189582E08093420210920D0315
:1005800008950F931F93CF93DF93FC0185E492E0CE
:100590009187808720910D0330E0338722879091E7
:1005A0004202953009F0B3C0809147029091480211
:1005B0008838910508F4AEC08091470290914802B6
:1005C000853E910508F0A6C080910D03843031F579
:1005D0008091490290914A02809700F180914902EE
:1005E00090914A02C797D0F480914B0290914C02AF
:1005F0000997A0F080914B0290914C02429770F4C1
:10060000178216828FEF9FEFDC0182839383A4838E
:10061000B58381E090E09183808380C080910D0359
:10062000843408F477C08091490290914A02823460
:10063000910508F46FC08091490290914A02803779
:10064000910508F067C080914B0290914C02099788
:1006500008F460C080914B0290914C02429708F0E0
:1006600059C0ADE4B2E009EC12E040E050E0BA015C
:100670000FC012968D919C911397099708F44AC068
:1006800012968D919C9113971496429708F042C050
:10069000ED018D919C911197469758F08D919C9109
:1006A0001197879730F4440F551F661F771F4160DD
:1006B0000CC088819981069768F1888199810D978E
:1006C00048F5440F551F661F771F0A171B0789F649
:1006D00080E290E0978386834283538364837583AB
:1006E00081E090E09183808319C08FEF9FEF918329
:1006F000808317821682128213821482158281E00F
:1007000090E00EC00E94BB0280E090E009C080E053
:1007100090E006C02630310544F7F4CF81E090E048
:10072000DF91CF911F910F910895E8E6F0E080816D
:1007300082608083ECE6F0E08081846080831092A8
:100740000E0310920F0310921003109211031092D7
:100750001203439885E18A95F1F70000439A85E3F7
:100760008A95F1F700004398329B05C080912C01D7
:1007700090912D01089580910E038823E1F3E8E61E
:10078000F0E080818D7F8083ECE6F0E080818B7FDC
:10079000808360910F0370911003809111039091F9
:1007A00012032CEA33E040E050E00E94CF11C9016F
:1007B00030932D0120932C0108951F920F920FB6B4
:1007C0000F9211242F938F939F93AF93BF93809198
:1007D0000F0390911003A0911103B0911203815067
:1007E0009F4FAF4FBF4F80930F0390931003A09381
:1007F0001103B093120381399D44A440B105D0F098
:1008000015BC26B580910F0390911003A0911103A0
:10081000B0911203820F911DA11DB11D80930F0392
:1008200090931003A0931103B093120316BC81E0C0
:1008300080930E03BF91AF919F918F912F910F9055
:100840000FBE0F901F9018951F920F920FB60F9228
:1008500011242F938F939F93AF93BF93329B03C029
:1008600081E085BD1AC015BC26B580910F0390911B
:100870001003A0911103B0911203820F911DA11DCD
:10088000B11D80930F0390931003A0931103B093B5
:10089000120316BC81E080930E03BF91AF919F912C
:1008A0008F912F910F900FBE0F901F901895ECE72E
:1008B000F0E09081907F8F70892B8083EAE7F0E0F1
:1008C000808180648083808186FDFDCF8091790066
:1008D00008950F931F93CF938C01CB01BA01C22FC0
:1008E0002AE04FE153E00E942512C8010E94FA0E4F
:1008F0008FE193E00E94EB0EC13029F489ED91E085
:100900000E94FA0E04C086ED91E00E94FA0ECF918B
:100910001F910F910895609134017091350186E027
:1009200090E00E946C12609130017091310184E07E
:1009300090E00E946C12609132017091330182E06C
:1009400090E00E946C1260912E0170912F0180E066
:1009500090E00E946C12089510922F0110922E01C7
:100960001092330110923201109231011092300135
:1009700010923501109234018DEC91E00E94FA0E34
:100980000E948B0408954F925F926F927F928F9294
:100990009F92AF92BF92CF92DF92EF92FF920F930E
:1009A0001F93CF93DF938AE10E94DE0D81111EC059
:1009B0000E940E0E81111FC00E94050E8BE10E9445
:1009C000DE0D81111DC00E94200EC82F0E94200E36
:1009D000D0E0D82B0E94200EC82E0E94200ED12CD1
:1009E000D82A0E94200E0E942B0E0EC0C12CD12CA2
:1009F000C0E0D0E009C0C12CD12CC0E0D0E004C0E0
:100A0000C12CD12CC0E0D0E00E94050E80913401B1
:100A100090913501892B71F48091300190913101D1
:100A2000892B41F4D0933101C0933001D09335012B
:100A3000C09334018091320190913301892B71F47C
:100A400080912E0190912F01892B41F4D0922F019A
:100A5000C0922E01D0923301C092320180913401B4
:100A600090913501C817D9070CF4CE019093350148
:100A70008093340180913001909131018C179D0752
:100A80000CF4CE01909331018093300180913201BA
:100A900090913301C816D9060CF4C6019093330126
:100AA0008093320180912E0190912F018C159D052C
:100AB0000CF4C60190932F0180932E010E948B04A9
:100AC000A0903001B09031018090340190903501B8
:100AD00000912E0110912F01E0903201F09033012E
:100AE000C501880D991D99230CF40196959587955C
:100AF000C81BD90BBE01DD0F880B990B0E94361065
:100B00002B013C01B50168197909072E000C880BEF
:100B1000990B0E9436109B01AC01C301B2010E94E7
:100B20008C0F4B015C01C8018E0D9F1D99230CF4A5
:100B3000019695958795B601681B790B072E000CD9
:100B4000880B990B0E9436102B013C01B8016E19DD
:100B50007F09072E000C880B990B0E9436109B0111
:100B6000AC01C301B2010E948C0FA50194010E9447
:100B70002D0F20E030E044E353E40E94F1102BED10
:100B80003FE049E450E40E948C0F0E94FE0F9B015D
:100B90001616170614F028593E4FC901DF91CF9160
:100BA0001F910F91FF90EF90DF90CF90BF90AF908B
:100BB0009F908F907F906F905F904F90089560917D
:100BC000070170E081E00E94150D6091050170E061
:100BD00083E00E94150D6091030170E085E00E94A2
:100BE000150D6091010170E081E00E94A90D6091F6
:100BF000060170E082E00E94150D6091040170E032
:100C000084E00E94150D6091020170E086E00E9470
:100C1000150D6091000170E082E00E94A90D089519
:100C20002F923F924F925F926F927F928F929F92FC
:100C3000AF92BF92CF92DF92EF92FF920F931F93EA
:100C4000CF93DF93CDB7DEB765970FB6F894DEBFCD
:100C50000FBECDBFFC0174903196649031965490D4
:100C60003196449031963490319624903196249167
:100C7000319634913196049131964491498331965D
:100C800054915A83319684918B8380910801781A0C
:100C9000680E581A480E80913601380E280E280F1B
:100CA0002D8B380F10E0872C912C78869986A62CF6
:100CB000B12C6A86BB86C52CD12C5C86DD86E42CE3
:100CC000F12C4E86FF86E32DF0E0FD83EC83FC8162
:100CD000F88B2D81298B422D50E05F834E835E81FE
:100CE0005A8B8F818B8B3C8B08C1871550F4F80190
:100CF000E80FF11DCF018E169F060CF488858093B6
:100D0000070180910701781648F490E0801B910B51
:100D1000881599050CF488858093070120910501B9
:100D2000261558F4F9818F2F90E0820F911DA81697
:100D3000B9060CF48A858093050180910501681637
:100D400050F490E02981821B91098A159B050CF4CF
:100D50008A858093050120910301251558F43A8175
:100D6000832F90E0820F911DC816D9060CF48C8554
:100D70008093030180910301581650F490E04A815A
:100D8000841B91098C159D050CF48C8580930301BF
:100D900020910101241558F45B81852F90E0820F8A
:100DA000911DE816F9060CF48E858093010180915F
:100DB0000101481650F490E0EB818E1B91098E15CD
:100DC0009F050CF48E8580930101809106018315A7
:100DD00060F49801280F311DC9014C815D814217D3
:100DE00053070CF488898093060180910601381618
:100DF00058F490E0801B910BEC81FD818E179F07CA
:100E00000CF488898093060120910401221568F46E
:100E1000F9818F2F90E0820F911D2E813F8128173D
:100E200039070CF48A898093040180910401281603
:100E300060F490E03981831B91094E815F818417B2
:100E400095070CF48A8980930401409102015D8921
:100E5000451768F4EA818E2F90E0252F30E0840F4B
:100E6000911D281739070CF4C90180930201809164
:100E70000201FD89F81760F490E02F2F30E04A81DD
:100E8000841B9109821793070CF4C9018093020116
:100E9000409100015C89451768F4EB818E2F90E04A
:100EA000252F30E0840F911D281739070CF4C90154
:100EB0008093000180910001FC89F81760F490E0B4
:100EC0002F2F30E04B81841B9109821793070CF47C
:100ED000C901809300010E94DF05809109018823E8
:100EE00061F080E0EFE9FFE03197F1F700C000002A
:100EF0008F5F909109018917A8F3809107017812FB
:100F0000F4CE80910501681209CF80910301581237
:100F100005CF80910101481201CF8091060138125E
:100F2000FDCE809104012812F9CE809102013D8905
:100F30003813F4CE809100014C894813EFCE6596AA
:100F40000FB6F894DEBF0FBECDBFDF91CF911F91DA
:100F50000F91FF90EF90DF90CF90BF90AF909F9058
:100F60008F907F906F905F904F903F902F9008955B
:100F70000F931F93CF93DF93C8E3D3E008E913E007
:100F8000CE010E9410062C96C017D107C9F7DF9139
:100F9000CF911F910F9108950F931F93CF93DF93DC
:100FA000C8EDD2E008E313E0CE010E9410062C96B3
:100FB000C017D107C9F7DF91CF911F910F91089505
:100FC0000F931F93CF93DF93C8E7D2E008ED12E0B1
:100FD000CE010E9410062C96C017D107C9F7DF91E9
:100FE000CF911F910F9108950F931F93CF93DF938C
:100FF000C8E1D2E008E712E0CE010E9410062C966C
:10100000C017D107C9F7DF91CF911F910F910895B4
:101010008CE092E00E94100608950E9408088CED72
:1010200091E00E94100688EE91E00E94100608955B
:101030005F926F927F928F929F92AF92BF92CF9268
:10104000DF92EF92FF920F931F93CF93DF93912C38
:10105000C0E0D0E0E12CF12C6894772471F80F2ED9
:10106000F3E06F2EF02D0F2EF8E6CF2EDD24D39473
:10107000F02DE3C083E193E00E94C102892BE1F0EF
:101080000E94BB0203E113E0F801428153816481B5
:10109000758120E08EEB91E00E946904F801828165
:1010A0009381A481B5810197A109B1098E3F9F4F1A
:1010B000AF4FBF4F08F4CBC00E9495038C010E9434
:1010C000C3045C0180E00E945704582E81E00E9416
:1010D0005704882EA80160E070E021E085EB91E0E4
:1010E0000E946904A50160E070E021E08CEA91E0D3
:1010F0000E946904452D50E060E070E021E085EA3F
:1011000091E00E946904482D50E060E070E021E029
:101110008EE991E00E9469044C2F50E060E070E09D
:1011200021E087E991E00E946904A70160E070E096
:1011300021E08FE891E00E946904492D50E060E0D1
:1011400070E020E086E891E00E9469040F3011050C
:1011500008F4972CC8010F970F9710F4CC2329F0AF
:101160000E31110538F0C23029F4851408F46BC033
:10117000962C6BC0C6018E199F09A80EB91E950149
:10118000A3E8BDE20E9416120024880F991F001CDC
:10119000880F991F001C892F902D8C9D90018D9D8B
:1011A000300D9C9D300D1124C501821B930B853B96
:1011B000910520F09601281B390BC9018C3491054B
:1011C00028F08C2F8D7F813009F4912CC13091F063
:1011D00028F0C230D9F0C33029F12FC08D2F90E014
:1011E000885C9C4F0E941006D45FD03630F1C92D28
:1011F000D0E023C08D2F90E0885E9D4F0E941006A6
:10120000D45FD036D0F0C92DD0E017C08D2F90E03C
:1012100088529D4F0E941006D45FD03670F0C92DC1
:10122000D0E00BC08D2F90E088589D4F0E94100693
:10123000D45FD03610F0C92DD0E00E940C0F892B5E
:1012400009F418CF04C0992493947501BFCFDF919E
:10125000CF911F910F91FF90EF90DF90CF90BF90B3
:10126000AF909F908F907F906F905F900895409186
:1012700036014F310CF04EE1423E0CF442EE409309
:101280003601042E000C550B660B770B20E080E82E
:1012900091E00E94690480913601865A8093000192
:1012A0008093020180930401809306010E94DF0570
:1012B0000895409108014F310CF04EE144230CF4A5
:1012C00040E040930801042E000C550B660B770B91
:1012D00020E08AE791E00E9469040E9408080895CE
:1012E00040910901433020F0433318F042E301C03C
:1012F00043E04093090150E060E070E020E085E7C2
:1013000091E00E9469040E940D0808950E949503CF
:10131000AC0160E070E021E08CE691E00E9469049D
:101320000E94C304AC0160E070E021E083E691E03C
:101330000E94690480E00E945704482F50E060E05A
:1013400070E021E08CE591E00E94690481E00E9458
:101350005704482F50E060E070E020E085E591E020
:101360000E946904089587E690E00E94970E0E940B
:10137000990C0E94A90C0E94440D0E94EB013B9A1B
:10138000429AEEE6F0E08081816080830E94D80D71
:101390008AE10E94DE0D8BE00E940E0E81E00E9429
:1013A0000E0E0E94050E8AE10E94DE0D89E00E9469
:1013B0000E0E8DE10E940E0E0E94050E80E68093B7
:1013C0007C0087E880937A0088E090E00E946612B3
:1013D00085359A4A29F586E090E00E94661290933E
:1013E00035018093340184E090E00E94661290936E
:1013F00031018093300182E090E00E946612909368
:1014000033018093320180E090E00E946612909355
:101410002F0180932E0100E010E0D0E0C0E007C073
:1014200065E57AEA88E090E00E946C12F4CF83E1EF
:1014300093E00E94C102892B09F453C1C0901503A7
:10144000D0901603E0901703F09018038FEFC816A2
:10145000D806E806F80621F4C02ED12EED2EFC2E7B
:101460000E94BB0220E0B701A60186E491E00E9441
:101470006904EDE9CE16E2E6DE06EFEFEE06F104D2
:1014800009F4E1C008F042C02DEDC21622E2D206F6
:101490002FEFE206F10409F4EEC0E0F4EFEECE1611
:1014A000E0E1DE06EFEFEE06F10409F48EC0F7EEA0
:1014B000CF16F8E1DF06FFEFEF06F10409F473C081
:1014C0002DEFC21622E0D2062FEFE206F10409F05A
:1014D00004C1DDC085EBC8168AE4D8068FEFE806A4
:1014E000F10409F469C0E5EACE16EAE5DE06EFEF9D
:1014F000EE06F10409F472C0F7ECCF16F8E3DF064C
:10150000FFEFEF06F10409F0E8C071C027E5C2164D
:1015100028EAD2062FEFE206F10409F4D7C0E0F47E
:10152000E7E6CE16E8E9DE06EFEFEE06F10409F491
:1015300077C0FDE5CF16F2EADF06FFEFEF06F10414
:1015400009F475C027E9C21628E6D2062FEFE20695
:10155000F10409F0C2C052C08DE3C81682ECD8066F
:101560008FEFE806F10409F49EC050F4FFE4CF16B3
:10157000F0EBDF06FFEFEF06F10409F448C0ADC061
:101580002FE1C21620EED2062FEFE206F10409F495
:1015900096C08DE1C81682EED8068FEFE806F104FA
:1015A00009F45DC09AC00E94B8070E9486090C2DFC
:1015B0001D2DDE2DCF2D95C00E94CC070E948609DF
:1015C0000C2D1D2DDE2DCF2D8CC00E94E0070E941A
:1015D00086090C2D1D2DDE2DCF2D83C00E94F40712
:1015E0000E9486090C2D1D2DDE2DCF2D7AC00E9464
:1015F00018080C2D1D2DDE2DCF2D73C080E092E03C
:101600000E9410060C2D1D2DDE2DCF2D6AC084EFFB
:1016100091E00E9410060C2D1D2DDE2DCF2D61C0F6
:101620000E9408080C2D1D2DDE2DCF2D5AC0809153
:1016300036018D5F809336010E9437090C2D1D2DD8
:10164000DE2DCF2D4EC0809108018F5F8093080161
:101650000E9459090C2D1D2DDE2DCF2D42C08091E9
:1016600009018F5F809309010E9470090C2D1D2DC7
:10167000DE2DCF2D36C08091360183508093360108
:101680000E9437090C2D1D2DDE2DCF2D2AC08091F3
:1016900008018150809308010E9459090C2D1D2DCD
:1016A000DE2DCF2D1EC0809109018150809309014C
:1016B0000E9470090C2D1D2DDE2DCF2D12C00E9411
:1016C000AC040C2D1D2DDE2DCF2D0BC00E940D085E
:1016D0000C2D1D2DDE2DCF2D04C00C2D1D2DDE2D2E
:1016E000CF2D0E940C0F892B09F4A1CE0E94B20EBF
:1016F00080978835910508F05FC08C5C9F4FFC0196
:101700000C9410120E94B8070E94860990CE0E9485
:10171000CC070E9486098BCE0E94E0070E948609B2
:1017200086CE0E94F4070E94860981CE80E092E076
:101730000E9410067CCE84EF91E00E94100677CEC6
:101740000E94080874CE0E940D0871CE8091360167
:101750008D5F809336010E94370969CE80913601F2
:101760008350809336010E94370961CE8091080131
:101770008F5F809308010E94590959CE809108011A
:101780008150809308010E94590951CE0E94AC04F7
:101790004ECE809109018150809309010E94700909
:1017A00046CE809109018F5F809309010E947009E4
:1017B0003ECE0E9418083BCE0E94860938CE1F926A
:1017C0000F920FB60F9211242F933F938F939F93F5
:1017D000EF93FF9380913A012BB190E0FC01EE0F63
:1017E000FF1F8E0F9F1FFC01EA5EFE4F80818095D8
:1017F00082238BB980913A01863021F080913A01A1
:101800008F5F01C080E080933A0180913A012BB153
:1018100090E0FC01EE0FFF1F8E0F9F1FFC01EA5EA0
:10182000FE4F8081822B8BB980913A0190E0FC01C0
:10183000EE0FFF1F8E0F9F1FFC01EA5EFE4F81819E
:10184000928190933C0180933B0120913B01309128
:101850003C01E8E8F0E080819181820F931F918341
:101860008083FF91EF919F918F913F912F910F90E6
:101870000FBE0F901F9018951F920F920FB60F92E8
:1018800011242F933F938F939F93EF93FF93809116
:10189000370125B190E0FC01EE0FFF1F8E0F9F1F57
:1018A000FC01E65FFE4F80818095822385B980919F
:1018B0003701833021F0809137018F5F01C080E0D4
:1018C000809337018091370125B190E0FC01EE0F44
:1018D000FF1F8E0F9F1FFC01E65FFE4F8081822B52
:1018E00085B98091370190E0FC01EE0FFF1F8E0F4C
:1018F0009F1FFC01E65FFE4F818192819093390129
:10190000809338012091380130913901EAE8F0E004
:1019100080819181820F931F91838083FF91EF914A
:101920009F918F913F912F910F900FBE0F901F901D
:10193000189586B3866086BBEFE6F0E08081897FEC
:101940008083109285001092840082E08093810051
:10195000089510923A0180913A01873040F58091C4
:101960003A012AB190E0FC01EE0FFF1F8E0F9F1F7E
:10197000FC01EA5EFE4F8081822B8AB980913A0198
:101980002BB190E0FC01EE0FFF1F8E0F9F1FFC019B
:10199000EA5EFE4F8081809582238BB980913A0167
:1019A0008F5F80933A0180913A018730C0F21092A4
:1019B0003A0180913A012BB190E0FC01EE0FFF1F3C
:1019C0008E0F9F1FFC01EA5EFE4F81E090E00080D9
:1019D00002C0880F991F0A94E2F7822B8BB980917D
:1019E0003A0190E0FC01EE0FFF1F8E0F9F1FFC01DC
:1019F000EA5EFE4F8181928190933C0180933B018E
:101A0000209184003091850080913B0190913C01B0
:101A1000820F931F9093890080938800B19AEFE61C
:101A2000F0E08081826080830895CF93DF936032FD
:101A300092E07907C8F490E0EC01CC0FDD1F8C0F29
:101A40009D1FEC01CA5EDE4F9B01A0E8BEE00E9434
:101A5000161224EB30E040E050E00E94F111205CCF
:101A60003B4F3A8329830DC090E0FC01EE0FFF1F2E
:101A70008E0F9F1FFC01EA5EFE4F660F771F728379
:101A80006183DF91CF9108951092370180913701E2
:101A9000843040F58091370124B190E0FC01EE0FD5
:101AA000FF1F8E0F9F1FFC01E65FFE4F8081822B80
:101AB00084B98091370125B190E0FC01EE0FFF1F42
:101AC0008E0F9F1FFC01E65FFE4F80818095822371
:101AD00085B9809137018F5F8093370180913701FD
:101AE0008430C0F2109237018091370125B190E027
:101AF000FC01EE0FFF1F8E0F9F1FFC01E65FFE4FE4
:101B00008081822B85B98091370190E0FC01EE0F36
:101B1000FF1F8E0F9F1FFC01E65FFE4F81819281A8
:101B20009093390180933801209184003091850091
:101B30008091380190913901820F931F90938B000F
:101B400080938A00B29AEFE6F0E08081846080831F
:101B50000895CF93DF93603292E07907C8F490E064
:101B6000EC01CC0FDD1F8C0F9D1FEC01C65FDE4F1B
:101B70009B01A0E8BEE00E94161224EB30E040E09A
:101B800050E00E94F111205C3B4F3A8329830DC045
:101B900090E0FC01EE0FFF1F8E0F9F1FFC01E65F20
:101BA000FE4F660F771F72836183DF91CF91089597
:101BB0001092B90088E48093B800089594EA909355
:101BC000BC00ECEBF0E090819923ECF79091B90028
:101BD000987F983011F09031A1F48093BB0084E895
:101BE0008093BC00ECEBF0E080818823ECF79091CF
:101BF000B900987F983139F081E0903429F480E081
:101C0000089581E0089580E0089584E98093BC0000
:101C1000ECEBF0E0808184FDFDCF08958093BB0064
:101C200084E88093BC00ECEBF0E080818823ECF743
:101C30009091B900987F81E0983209F480E008958E
:101C400084EC8093BC00ECEBF0E080818823ECF71F
:101C50008091BB00089584E88093BC00ECEBF0E039
:101C600080818823ECF78091BB0008951F920F922A
:101C70000FB60F9211242F933F934F935F938F933F
:101C80009F93EF93FF932091C0003091C60028717D
:101C900080913F0190E001968F77992740913E0116
:101CA00050E08417950739F080933F01FC01EE5B0B
:101CB000FE4F308301C022E020933D01FF91EF9160
:101CC0009F918F915F914F913F912F910F900FBEF8
:101CD0000F901F9018951F920F920FB60F9211241C
:101CE0008F939F93EF93FF939091410180914001D7
:101CF000981779F08091400190E001968F779927AD
:101D000080934001FC01EE53FE4F80818093C6001A
:101D100005C0E1ECF0E080818F7D8083FF91EF9141
:101D20009F918F910F900FBE0F901F901895F89470
:101D3000109241011092400110923F0110923E0119
:101D40007894992324F422E02093C0009F77909305
:101D5000C5008093C40088E98093C10086E0809329
:101D6000C2000895F89490913F0180913E0198132C
:101D700004C0789480E091E00895789480913E01C9
:101D800090E001968F77992780933E01FC01EE5BEE
:101D9000FE4F208180913D0190E0982F8827820F8F
:101DA000911D08954091410150E04F5F5F4F4F7783
:101DB00055272091400130E042175307D1F3FA0133
:101DC000EE53FE4F808340934101E1ECF0E08081CF
:101DD000806280830895CF93DF93EC01888188230C
:101DE00031F021960E94D20E89918111FBCFDF91B3
:101DF000CF910895CF93DF93EC012196FC0184915C
:101E0000882339F00E94D20EFE018491219681111F
:101E1000F9CFDF91CF910895F89480913F012091FF
:101E20003E01789490E080589F4F821B91098F77F4
:101E3000992708950E94A11060F080E891E009F4CC
:101E40009EEF0E94A81028F040E851E071F45EEF88
:101E50000CC00C9477100C94E210E92FE0780E94EB
:101E6000C01040F3092E052AB1F32617370748079B
:101E7000590738F00E2E07F8E02569F0E025E064F8
:101E80000AC0EF6307F8009407FADB01B9019D016E
:101E9000DC01CA01AD01EF930E94A30F0E94AF10B5
:101EA0000E945D0F5F91552339F02BED3FE049E42F
:101EB00050FD49EC0C9463110895DF93DD27B92F91
:101EC000BF7740E85FE31616170648075B0718F46C
:101ED000D92F0E94E9109F938F937F936F930E9455
:101EE0005E11E8E1F1E00E947A100E94AF102F919C
:101EF0003F914F915F910E940411DD2351F0905862
:101F0000A2EA2AED3FE049EC5FE3D0785D270E942A
:101F10007A11DF910C94AF100E94A00F0C94AF10B7
:101F20000E94A81058F00E94A11040F029F45F3FD1
:101F300029F00C94711051110C94E3100C9477104B
:101F40000E94C01068F39923B1F3552391F3951BB8
:101F5000550BBB27AA2762177307840738F09F5FCA
:101F60005F4F220F331F441FAA1FA9F335D00E2E37
:101F70003AF0E0E832D091505040E695001CCAF7A4
:101F80002BD0FE2F29D0660F771F881FBB1F261767
:101F900037074807AB07B0E809F0BB0B802DBF013E
:101FA000FF2793585F4F3AF09E3F510578F00C940D
:101FB00071100C94E3105F3FE4F3983ED4F38695E0
:101FC00077956795B795F7959F5FC9F7880F911D2E
:101FD0009695879597F90895E1E0660F771F881F1A
:101FE000BB1F621773078407BA0720F0621B730BCD
:101FF000840BBA0BEE1F88F7E09508950E94051038
:102000006894B1110C94E31008950E94C81088F0F0
:102010009F5798F0B92F9927B751B0F0E1F0660FAC
:10202000771F881F991F1AF0BA95C9F714C0B130ED
:1020300091F00E94E210B1E008950C94E210672F35
:10204000782F8827B85F39F0B93FCCF3869577951C
:102050006795B395D9F73EF4909580957095619505
:102060007F4F8F4F9F4F0895E89409C097FB3EF430
:1020700090958095709561957F4F8F4F9F4F9923D5
:10208000A9F0F92F96E9BB279395F6958795779553
:102090006795B795F111F8CFFAF4BB0F11F460FF13
:1020A0001BC06F5F7F4F8F4F9F4F16C0882311F06B
:1020B00096E911C0772321F09EE8872F762F05C07F
:1020C000662371F096E8862F70E060E02AF09A951A
:1020D000660F771F881FDAF7880F9695879597F90F
:1020E000089597F99F6780E870E060E008959FEF9A
:1020F00080EC0895DF93CF931F930F93FF92EF929D
:10210000DF927B018C01689406C0DA2EEF010E94F9
:102110000411FE01E894A5912591359145915591C1
:10212000A6F3EF010E947A11FE019701A801DA944B
:1021300069F7DF90EF90FF900F911F91CF91DF91A2
:10214000089500240A94161617061806090608951D
:1021500000240A9412161306140605060895092E83
:102160000394000C11F4882352F0BB0F40F4BF2BF2
:1021700011F460FF04C06F5F7F4F8F4F9F4F089532
:1021800057FD9058440F551F59F05F3F71F0479528
:10219000880F97FB991F61F09F3F79F0879508950D
:1021A000121613061406551FF2CF4695F1DF08C02C
:1021B000161617061806991FF1CF86957105610549
:1021C00008940895E894BB2766277727CB0197F9F1
:1021D00008959B01AC0160E070E080E89FE30C94FF
:1021E0008C0F0E9404110C94AF100E94A11038F0C3
:1021F0000E94A81020F0952311F00C9471100C94FB
:10220000771011240C94E3100E94C01070F3959F76
:10221000C1F3950F50E0551F629FF001729FBB27DD
:10222000F00DB11D639FAA27F00DB11DAA1F649F79
:102230006627B00DA11D661F829F2227B00DA11D2C
:10224000621F739FB00DA11D621F839FA00D611DB2
:10225000221F749F3327A00D611D231F849F600DD3
:10226000211D822F762F6A2F11249F5750409AF0FC
:10227000F1F088234AF0EE0FFF1FBB1F661F771F88
:10228000881F91505040A9F79E3F510580F00C9453
:1022900071100C94E3105F3FE4F3983ED4F38695FD
:1022A00077956795B795F795E7959F5FC1F7FE2BF3
:1022B000880F911D9695879597F908959B01AC011C
:1022C0000C94F1105058BB27AA270E947A110C9445
:1022D000AF100E94A11038F00E94A81020F039F42D
:1022E0009F3F19F426F40C9477100EF4E095E7FB69
:1022F0000C947110E92F0E94C01058F3BA176207AE
:1023000073078407950720F079F4A6F50C94E21082
:102310000EF4E0950B2EBA2FA02D0B01B901900100
:102320000C01CA01A0011124FF27591B99F0593F44
:1023300050F4503E68F11A16F040A22F232F342F8C
:102340004427585FF3CF469537952795A795F040DA
:102350005395C9F77EF41F16BA0B620B730B840BEF
:10236000BAF09150A1F0FF0FBB1F661F771F881FA7
:10237000C2F70EC0BA0F621F731F841F48F48795FF
:1023800077956795B795F7959E3F08F0B0CF9395F1
:10239000880F08F09927EE0F979587950895A1E289
:1023A0001A2EAA1BBB1BFD010DC0AA1FBB1FEE1FCF
:1023B000FF1FA217B307E407F50720F0A21BB30B1A
:1023C000E40BF50B661F771F881F991F1A9469F796
:1023D00060957095809590959B01AC01BD01CF01F2
:1023E0000895052E97FB1EF400940E94081257FDD5
:1023F00007D00E94CF1107FC03D04EF40C940812B2
:1024000050954095309521953F4F4F4F5F4F089520
:1024100090958095709561957F4F8F4F9F4F089550
:10242000EE0FFF1F0590F491E02D0994A29FB001DB
:10243000B39FC001A39F700D811D1124911DB29FF8
:10244000700D811D1124911D0895BB272A3051F470
:10245000992342F4BDE290958095709561957F4FE8
:102460008F4F9F4F0C943512BB27FA01A62F62178E
:10247000710581059105330B30FB66F0AA27660FC5
:10248000771F881F991FAA1FA21710F0A21B639520
:102490003850A9F7A05DAA3308F0A95DA19336F7DB
:1024A000B111B1931082CA010C945612DC01FC01E7
:1024B000672F71917723E1F7329704C07C916D9378
:1024C00070836291AE17BF07C8F30895A8E1B0E02A
:1024D00042E050E00C9474120196272F0E94831260
:1024E0000C948212DC01CB01FC01F999FECF06C0ED
:1024F000F2BDE1BDF89A319600B40D9241505040C2
:10250000B8F70895262FF999FECF92BD81BDF89AAC
:10251000019700B4021639F01FBA20BD0FB6F89427
:0C252000FA9AF99A0FBE0895F894FFCFC4
:10252C005A5A5A5A5A5A5A5A0F0A00409C01B80B16
:10253C0002B80B04B80B00409C04B80B08B80B1085
:0C254C00B80B20B80B40B80B80B80B0097
:00000001FF
